:100000000C9434000C9451000C9451000C94FA00A0
:100010000C9451000C9451000C9451000C9451001C
:100020000C9451000C9451000C9451000C94D70086
:100030000C9451000C9451000C9451000C945100FC
:100040000C9451000C9451000C9451000C945100EC
:100050000C9451000C9451000C9451000C945100DC
:100060000C9451000C94510011241FBECFEFD8E026
:10007000DEBFCDBF11E0A0E0B1E0E4E1F5E002C0F9
:1000800005900D92A831B107D9F721E0A8E1B1E0C0
:1000900001C01D92AD32B207E1F70E94B4010C9489
:1000A00088020C9400009091C00095FFFCCF8093D3
:1000B000C6000895CF93DF93EC018881811103C0BE
:1000C000DF91CF91089521960E945300F6CF8F9231
:1000D0009F92AF92BF92CF92DF92EF92FF920F93D7
:1000E0001F93CF93DF93CDB7DEB72A970FB6F8945F
:1000F000DEBF0FBECDBF6B017C01C114D104E10492
:10010000F104A9F480E32A960FB6F894DEBF0FBE7F
:10011000CDBFDF91CF911F910F91FF90EF90DF90B6
:10012000CF90BF90AF909F908F900C9453005E0142
:100130008FEFA81AB80A450100E010E0B601C70128
:100140002AE030E040E050E00E944C020F5F1F4F79
:10015000605DF4016083FAE0CF16D104E104F1049C
:10016000E8F40A0D1B1DF80182918F010E945300D3
:100170000A151B05C1F72A960FB6F894DEBF0FBE0D
:10018000CDBFDF91CF911F910F91FF90EF90DF9046
:10019000CF90BF90AF909F908F9008958FEF881A67
:1001A000980A69017A010A30110541F6DACF1F92E7
:1001B0001FB61F9211248F939F93AF93BF9380918B
:1001C000190190911A01A0911B01B0911C01019697
:1001D000A11DB11D8093190190931A01A0931B01D9
:1001E000B0931C01BF91AF919F918F911F901FBE43
:1001F0001F9018950F920FB60F921F921124CF9255
:10020000DF92EF92FF922F933F934F935F936F9301
:100210007F938F939F93AF93BF93EF93FF9320911F
:10022000190130911A0140911B0150911C01E0917C
:100230008400F0918500A0EABFE00E946E0224E0F5
:10024000F695E7952A95E1F7DC01CB018E0F9F1F0C
:10025000A11DB11D2227199923953091180132173C
:1002600008F044C0C0902901D0902A01E0902B01F1
:10027000F0902C01C114D104E104F104C1F0C0904C
:100280002901D0902A01E0902B01F0902C01AC01C3
:10029000BD014C195D096E097F096A017B01C0929D
:1002A0002101D0922201E0922301F0922401809357
:1002B000290190932A01A0932B01B0932C01209344
:1002C0001801FF91EF91BF91AF919F918F917F9115
:1002D0006F915F914F913F912F91FF90EF90DF9041
:1002E000CF901F900F900FBE0F901895309118016E
:1002F000231728F78093250190932601A0932701C7
:10030000B093280140912501509126016091270169
:10031000709128018091290190912A01A0912B01CF
:10032000B0912C01481759076A077B0740F280916A
:10033000250190912601A0912701B09128014091BB
:10034000290150912A0160912B0170912C01841B8D
:10035000950BA60BB70B80931D0190931E01A093E4
:100360001F01B0932001ABCF00D000D00F92CDB7CA
:10037000DEB7569A83E884BD82E085BD8FE787BDEE
:1003800021988091680081608093680080916B0063
:10039000826080936B0010928000109281008091A7
:1003A00081008860809381008091810081608093CA
:1003B000810080E09AEF909389008093880080917B
:1003C0006F00826080936F001092C50087E6809373
:1003D000C4001092C00088E08093C10086E0809342
:1003E000C2007894C0902101D0902201E0902301B6
:1003F000F0902401C114D104E104F10409F447C0D0
:10040000209121013091220140912301509124013A
:1004100060E472E48FE090E00E944C0269017A018E
:1004200020911D0130911E0140911F01509120012A
:100430008091210190912201A0912301B09124018A
:1004400089839A83AB83BC83A4E6B0E00E946E02EA
:1004500029813A814B815C810E944C0289014D8344
:10046000598380E091E00E945A00B8018D81998102
:100470000E94670087E091E00E945A00B601C70120
:100480000E94670081E191E00E945A00ABCF00E03A
:1004900010E01D821982E5CFA1E21A2EAA1BBB1B18
:1004A000FD010DC0AA1FBB1FEE1FFF1FA217B30740
:1004B000E407F50720F0A21BB30BE40BF50B661F56
:1004C000771F881F991F1A9469F76095709580951A
:1004D00090959B01AC01BD01CF0108950E94790266
:1004E000A59F900DB49F900DA49F800D911D112488
:1004F0000895A29FB001B39FC001A39F700D811DFD
:100500001124911DB29F700D811D1124911D08951C
:04051000F894FFCF8D
:10051400447574793A2000252020467265713A208A
:080524000020487A0D0A0000D6
:00000001FF
