:100000000C9434000C94B4010C9451000C94FA003C
:100010000C9451000C9451000C9451000C9451001C
:100020000C9451000C9451000C9451000C94D70086
:100030000C9451000C9451000C9451000C945100FC
:100040000C9451000C9451000C9451000C945100EC
:100050000C9451000C94C3010C9451000C94510069
:100060000C9451000C94510011241FBECFEFD8E026
:10007000DEBFCDBF11E0A0E0B1E0E6EEF5E002C0EA
:1000800005900D92A233B107D9F721E0A2E3B1E0C8
:1000900001C01D92AA34B207E1F70E94EE010C9450
:1000A000F1020C9400009091C00095FFFCCF80936A
:1000B000C6000895CF93DF93EC018881811103C0BE
:1000C000DF91CF91089521960E945300F6CF8F9231
:1000D0009F92AF92BF92CF92DF92EF92FF920F93D7
:1000E0001F93CF93DF93CDB7DEB72A970FB6F8945F
:1000F000DEBF0FBECDBF6B017C01C114D104E10492
:10010000F104A9F480E32A960FB6F894DEBF0FBE7F
:10011000CDBFDF91CF911F910F91FF90EF90DF90B6
:10012000CF90BF90AF909F908F900C9453005E0142
:100130008FEFA81AB80A450100E010E0B601C70128
:100140002AE030E040E050E00E94B5020F5F1F4F10
:10015000605DF4016083FAE0CF16D104E104F1049C
:10016000E8F40A0D1B1DF80182918F010E945300D3
:100170000A151B05C1F72A960FB6F894DEBF0FBE0D
:10018000CDBFDF91CF911F910F91FF90EF90DF9046
:10019000CF90BF90AF909F908F9008958FEF881A67
:1001A000980A69017A010A30110541F6DACF1F92E7
:1001B0001FB61F9211248F939F93AF93BF9380918B
:1001C000360190913701A0913801B0913901019623
:1001D000A11DB11D8093360190933701A093380182
:1001E000B0933901BF91AF919F918F911F901FBE26
:1001F0001F9018950F920FB60F921F921124CF9255
:10020000DF92EF92FF922F933F934F935F936F9301
:100210007F938F939F93AF93BF93EF93FF9320911F
:100220003601309137014091380150913901E09108
:100230008400F0918500A0EABFE00E94D70224E08C
:10024000F695E7952A95E1F7DC01CB018E0F9F1F0C
:10025000A11DB11D2227199923953091350132171F
:1002600008F044C0C0904601D0904701E09048019A
:10027000F0904901C114D104E104F104C1F0C0902F
:100280004601D0904701E0904801F0904901AC014F
:10029000BD014C195D096E097F096A017B01C0929D
:1002A0003E01D0923F01E0924001F09241018093E3
:1002B000460190934701A0934801B09349012093D0
:1002C0003501FF91EF91BF91AF919F918F917F91F8
:1002D0006F915F914F913F912F91FF90EF90DF9041
:1002E000CF901F900F900FBE0F9018953091350151
:1002F000231728F78093420190934301A093440170
:10030000B0934501409142015091430160914401F5
:10031000709145018091460190914701A09148015B
:10032000B0914901481759076A077B0740F280914D
:10033000420190914301A0914401B0914501409147
:100340004601509147016091480170914901841B19
:10035000950BA60BB70B80933A0190933B01A093AA
:100360003C01B0933D01ABCF8F938FB78F939F9399
:100370008091340191E08927809334019F918F917E
:100380008FBF8F9118952F932FB72F938F939F9394
:10039000809178009091790090933301809332019D
:1003A000809132019091330188359240A8F02D9AC6
:1003B0008091320190913301969587959695879516
:1003C00087BD80917A00806480937A009F918F919D
:1003D0002F912FBF2F9118952D98EACF00D000D0E4
:1003E0000F92CDB7DEB7569A83E884BD82E085BD13
:1003F0008FE787BD219880916800816080936800B5
:1004000080916B00826080936B001092800010924C
:1004100081008091810088608093810080918100BB
:1004200081608093810080E09AEF909389008093AF
:10043000880080916F00826080936F001092C500E9
:1004400087E68093C4001092C00088E08093C100CA
:1004500086E08093C200259A52985A9A809169004A
:10046000826080936900E89A80E480937C008FE842
:1004700080937A0080917A00806480937A007894E7
:10048000C0903E01D0903F01E0904001F0904101CA
:10049000C114D104E104F10409F462C020913E01C9
:1004A00030913F01409140015091410160E472E47C
:1004B0008FE090E00E94B50269017A0120913A0133
:1004C00030913B0140913C0150913D0180913E01B2
:1004D00090913F01A0914001B091410189839A839D
:1004E000AB83BC83A4E6B0E00E94D70229813A81A5
:1004F0004B815C810E94B50289014D83598380E064
:1005000091E00E945A00B8018D8199810E94670094
:1005100087E091E00E945A00B601C7010E9467007F
:1005200081E191E00E945A0087E191E00E945A0027
:10053000609132017091330180E090E00E94670089
:1005400084E291E00E945A006091340170E080E002
:1005500090E00E94670084E191E00E945A0090CFF1
:1005600000E010E01D821982CACFA1E21A2EAA1B58
:10057000BB1BFD010DC0AA1FBB1FEE1FFF1FA21753
:10058000B307E407F50720F0A21BB30BE40BF50B50
:10059000661F771F881F991F1A9469F760957095D9
:1005A000809590959B01AC01BD01CF0108950E94FB
:1005B000E202A59F900DB49F900DA49F800D911D08
:1005C00011240895A29FB001B39FC001A39F700D95
:1005D000811D1124911DB29F700D811D1124911D4B
:0605E0000895F894FFCF1E
:1005E600447574793A2000252020467265713A20B8
:1005F6000020487A0D0A00414443204130207261B0
:10060600773A200020204D6F6465466C61673A207A
:020616000000E2
:00000001FF
